:020000040000FA
:100000000C9435000C945D000C945D000C945D0024
:100010000C945D000C945D000C945D000C945D00EC
:100020000C945D000C945D000C945D000C945D00DC
:100030000C945D000C945D000C945D000C945D00CC
:100040000C9450020C945D000C941E020C94F80168
:100050000C945D000C945D000C945D000C945D00AC
:100060000C945D000C945D001D0411241FBECFEFA5
:10007000D8E0DEBFCDBF21E0A6E2B1E001C01D9215
:10008000A03DB207E1F711E0A0E0B1E0E2EBFDE056
:1000900002C005900D92A632B107D9F710E0C5E372
:1000A000D0E004C02197FE010E94DF04C433D107D1
:1000B000C9F70E949A020C94D7060C940000AF92E4
:1000C000BF92CF92DF92EF92FF920F931F93CF9345
:1000D000DF936C017B018B01040F151FEB015E01A7
:1000E000AE18BF08C017D10759F06991D601ED913C
:1000F000FC910190F081E02DC6010995892B79F7DB
:10010000C501DF91CF911F910F91FF90EF90DF908C
:10011000CF90BF90AF900895FC01538D448D252F53
:1001200030E0842F90E0821B930B541710F0CF9691
:10013000089501970895FC01918D828D981761F0C3
:10014000A28DAE0FBF2FB11D5D968C91928D9F5FDA
:100150009F73928F90E008958FEF9FEF0895FC01B9
:10016000918D828D981731F0828DE80FF11D858D6C
:1001700090E008958FEF9FEF0895FC01918D228DFF
:10018000892F90E0805C9F4F821B91098F73992784
:1001900008958FE291E00E94BD0021E0892B09F4CF
:1001A00020E0822F089580E090E0892B29F00E94C2
:1001B000C90081110C9400000895FC01A48DA80FC2
:1001C000B92FB11DA35ABF4F2C91848D90E0019699
:1001D0008F739927848FA689B7892C93A089B189B9
:1001E0008C91837080648C93938D848D981306C05A
:1001F0000288F389E02D80818F7D80830895EF92BE
:10020000FF920F931F93CF93DF93EC0181E0888FD0
:100210009B8D8C8D98131AC0E889F989808185FFA0
:1002200015C09FB7F894EE89FF896083E889F98942
:1002300080818370806480839FBF81E090E0DF9144
:10024000CF911F910F91FF90EF900895F62E0B8D97
:1002500010E00F5F1F4F0F731127E02E8C8D8E1152
:100260000CC00FB607FCFACFE889F989808185FFB9
:10027000F5CFCE010E94DD00F1CFEB8DEC0FFD2F0D
:10028000F11DE35AFF4FF0829FB7F8940B8FEA8974
:10029000FB8980818062CFCFCF93DF93EC01888D83
:1002A0008823B9F0AA89BB89E889F9898C9185FDF1
:1002B00003C0808186FD0DC00FB607FCF7CF8C917F
:1002C00085FFF2CF808185FFEDCFCE010E94DD005A
:1002D000E9CFDF91CF9108953FB7F89480912B013A
:1002E00090912C01A0912D01B0912E0126B5A89BD3
:1002F00005C02F3F19F00196A11DB11D3FBFBA2FB8
:10030000A92F982F8827BC01CD01620F711D811D77
:10031000911D42E0660F771F881F991F4A95D1F7FC
:1003200008958F929F92AF92BF92CF92DF92EF92F9
:10033000FF924B015C010E946C016B017C010E94E9
:100340006C016C197D098E099F09683E7340810517
:100350009105A8F321E0821A9108A108B10888EE5E
:10036000C80E83E0D81EE11CF11C81149104A10485
:10037000B10429F7FF90EF90DF90CF90BF90AF903E
:100380009F908F900895FC0101900020E9F731972C
:10039000AF01481B590BBC018FE291E00C945F0048
:1003A0000F931F93CF93DF93EC018881998100977E
:1003B00059F02A813B812617370730F081E0DF9121
:1003C000CF911F910F9108958B016F5F7F4F0E9416
:1003D0000A06009759F0998388831B830A832C812E
:1003E0003D81232B59F7FC011082E8CF80E0E7CF55
:1003F0001F920F920FB60F9211242F933F934F939A
:100400005F936F937F938F939F93AF93BF93EF937C
:10041000FF938FE291E00E94DD00FF91EF91BF9189
:10042000AF919F918F917F916F915F914F913F918C
:100430002F910F900FBE0F901F9018951F920F9243
:100440000FB60F9211242F938F939F93EF93FF93E7
:10045000E0913F01F09140018081E0914501F091F0
:10046000460182FD1BC09081809148018F5F8F7390
:1004700020914901821741F0E0914801F0E0E15DEF
:10048000FE4F958F80934801FF91EF919F918F913F
:100490002F910F900FBE0F901F9018958081F4CF71
:1004A0001F920F920FB60F9211242F933F938F93A9
:1004B0009F93AF93BF938091270190912801A091C2
:1004C0002901B0912A013091260123E0230F2D3715
:1004D00058F50196A11DB11D209326018093270197
:1004E00090932801A0932901B0932A0180912B01B8
:1004F00090912C01A0912D01B0912E010196A11D8A
:10050000B11D80932B0190932C01A0932D01B093EA
:100510002E01BF91AF919F918F913F912F910F909D
:100520000FBE0F901F90189526E8230F0296A11D6D
:10053000B11DD2CFCF93DF93CDB7DEB7A3970FB660
:10054000F894DEBF0FBECDBF789484B5826084BDC1
:1005500084B5816084BD85B5826085BD85B58160C7
:1005600085BD80916E00816080936E001092810045
:100570008091810082608093810080918100816000
:1005800080938100809180008160809380008091C1
:10059000B10084608093B1008091B000816080934D
:1005A000B00080917A00846080937A0080917A0014
:1005B000826080937A0080917A00816080937A00D3
:1005C00080917A00806880937A001092C100E09157
:1005D0003F01F091400182E08083E0913B01F09186
:1005E0003C011082E0913D01F0913E018FEC80834F
:1005F00010924701E0914301F091440186E080832D
:10060000E0914101F0914201808180618083E0911D
:100610004101F0914201808188608083E091410135
:10062000F0914201808180688083E0914101F091E6
:10063000420180818F7D808320E4B22E00E010E0B3
:10064000B0927C0080917A00806480937A008091DF
:100650007A0086FDFCCF8091780080907900982CFC
:10066000882E8FE291E00E94BD00181619060CF04A
:1006700078C01A8219821C821B821E821D8270E041
:1006800060E0CE0101960E94D00129813A8181115A
:100690003BC02115310519F0C9010E9481051A825C
:1006A00019821E821D821C821B828FE291E00E94B1
:1006B000BD001816190684F58FE291E00E949B0098
:1006C0008A30D9F08AA31BA2ED80FE808FEFE81A52
:1006D000F80AB701CE0101960E94D001882369F083
:1006E00029813A818D819E81BE016E5D7F4F820F8F
:1006F000931F0E94D006FE82ED826AE070E080E0E7
:1007000090E00E949101D1CF1E821D8265E271E0CE
:10071000C9010E94D006C9CF8AE191E00E94C301BD
:100720004D815E8169817A818FE291E00E945F0054
:1007300083E291E00E94C301E980FA8060E070E00A
:10074000CB01E114F10419F0C7010E944A0470932F
:10075000010160930001E114F10419F0C7010E9446
:1007600081058091000190910101889E6001899E20
:10077000D00C989ED00C11240D2C000CEE08FF0814
:10078000F7FE40C06DE28FE291E00E94FF00222759
:100790003327A9012C193D094E095F0919A2FE0151
:1007A000B1967F019AE0492E512C612C712CCA011F
:1007B000B901A30192010E94BD04605DF70162933B
:1007C0007F01211531054105510589F7E114F10437
:1007D00019F0C7010E94C30183E291E00E94C301A6
:1007E00064E670E080E090E00E949101011511053F
:1007F00009F426CF0E94C900882309F421CF0E9462
:1008000000001ECFA701960119A2CE0181967C019E
:100810008AE0482E512C612C712CCA01B901A30128
:1008200092010E94BD04605DF70162937F01211572
:1008300031054105510589F7C9CFEFE2F1E0138297
:10084000128288EE93E0A0E0B0E084839583A683D3
:10085000B7838CE091E09183808385EC90E095876D
:10086000848784EC90E09787868780EC90E0918B7A
:10087000808B81EC90E0938B828B82EC90E0958B67
:10088000848B86EC90E0978B868B118E128E138E64
:10089000148E08951F93FC0199278827BC01E894C2
:1008A00011911032E9F3193010F01E30C8F31B32E9
:1008B00051F01D3249F4689406C00E947104610F22
:1008C000711D811D911D119110531A30B0F33EF42A
:1008D00090958095709561957F4F8F4F9F4F1F9199
:1008E0000895592F482F372F262F660F771F881FFF
:1008F000991F660F771F881F991F620F731F841F30
:10090000951F660F771F881F991F08952F923F929A
:100910004F925F926F927F928F929F92AF92BF920F
:10092000CF92DF92EF92FF920F931F93CF93DF93BB
:10093000CDB7DEB7CA1BDB0B0FB6F894DEBF0FBE18
:10094000CDBF09942A88398848885F846E847D8465
:100950008C849B84AA84B984C884DF80EE80FD8067
:100960000C811B81AA81B981CE0FD11D0FB6F894DD
:10097000DEBF0FBECDBFED010895A1E21A2EAA1B66
:10098000BB1BFD010DC0AA1FBB1FEE1FFF1FA2173F
:10099000B307E407F50720F0A21BB30BE40BF50B3C
:1009A000661F771F881F991F1A9469F760957095C5
:1009B000809590959B01AC01BD01CF010895EE0F8C
:1009C000FF1F0590F491E02D09940F931F93CF938F
:1009D000DF938230910510F482E090E0E091CE0147
:1009E000F091CF0130E020E0B0E0A0E0309799F442
:1009F0002115310509F44AC0281B390B2430310573
:100A0000D8F58A819B816115710589F1FB0193837A
:100A10008283FE0111C040815181028113814817F8
:100A20005907E0F04817590799F4109761F01296AA
:100A30000C93129713961C933296CF01DF91CF91AE
:100A40001F910F9108950093CE011093CF01F4CF21
:100A50002115310551F04217530738F0A901DB0188
:100A60009A01BD01DF01F801C1CFEF01F9CF9093E9
:100A7000CF018093CE01CDCFFE01E20FF31F819312
:100A800091932250310939832883D7CF2091CC010B
:100A90003091CD01232B41F42091040130910501C7
:100AA0003093CD012093CC012091020130910301BC
:100AB0002115310541F42DB73EB740910601509103
:100AC0000701241B350BE091CC01F091CD01E21719
:100AD000F307A0F42E1B3F0B2817390778F0AC0161
:100AE0004E5F5F4F2417350748F04E0F5F1F50933E
:100AF000CD014093CC01819391939FCFF0E0E0E052
:100B00009CCFCF93DF930097E9F0FC0132971382DB
:100B10001282A091CE01B091CF01ED0130E020E032
:100B20001097A1F420813181820F931F2091CC0175
:100B30003091CD012817390709F061C0F093CD013C
:100B4000E093CC01DF91CF910895EA01CE17DF0742
:100B5000E8F54A815B819E0141155105B1F7E90134
:100B6000FB83EA8349915991C40FD51FEC17FD0708
:100B700061F4808191810296840F951FE901998328
:100B80008883828193819B838A83F0E0E0E01296E0
:100B90008D919C9113970097B9F52D913C911197E8
:100BA000CD010296820F931F2091CC013091CD018F
:100BB0002817390739F6309751F51092CF01109266
:100BC000CE01B093CD01A093CC01BCCFD383C2831F
:100BD00040815181840F951FC817D90761F44E5F7A
:100BE0005F4F88819981480F591F518340838A81C3
:100BF0009B81938382832115310509F0B0CFF09357
:100C0000CF01E093CE019ECFFD01DC01C0CF138266
:100C10001282D7CFB0E0A0E0E0E1F6E00C948804C7
:100C20008C01009751F4CB010E94E5048C01C801AE
:100C3000CDB7DEB7E0E10C94A404FC01E60FF71F8A
:100C40009C0122503109E217F30708F49DC0D90135
:100C5000CD91DC911197C617D70798F0C530D10513
:100C600030F3CE0104978617970708F3C61BD70BFE
:100C70002297C193D1936D937C93CF010E948105FC
:100C8000D6CF5B01AC1ABD0A4C018C0E9D1EA09103
:100C9000CE01B091CF01512C412CF12CE12C1097B9
:100CA00031F58091CC019091CD018815990509F01D
:100CB0005CC04616570608F058C08091020190911A
:100CC0000301009741F48DB79EB740910601509102
:100CD0000701841B950BE817F90708F055C0F0933E
:100CE000CD01E093CC01F90171836083A0CF8D9198
:100CF0009C91119712966C90129713967C90139773
:100D0000A815B90559F56C0142E0C40ED11CCA14EE
:100D1000DB0420F1AC014A195B09DA011296159740
:100D200080F06282738251834083D9016D937C93FA
:100D3000E114F10471F0D7011396FC93EE9312972E
:100D400076CF22968C0F9D1FF90191838083F3014A
:100D5000EFCFF093CF01E093CE0169CF481659064B
:100D600008F42C017D01D3019ACFCB010E94E50448
:100D70007C01009749F0AE01B8010E94C706C80186
:100D80000E948105870153CF10E000E050CFFB01A6
:100D9000DC0102C001900D9241505040D8F70895F7
:100DA000FB01DC0101900D920020E1F70895F89419
:100DB000FFCF01000000D001800000000000FF0014
:100DC0005F008C004C01BD009B00AF005265636565
:080DD00062693A20000D0A00DF
:107E0000112484B714BE81FFF0D085E080938100F7
:107E100082E08093C00088E18093C10086E0809377
:107E2000C20080E18093C4008EE0C9D0259A86E02C
:107E300020E33CEF91E0309385002093840096BBD3
:107E4000B09BFECF1D9AA8958150A9F7CC24DD24C4
:107E500088248394B5E0AB2EA1E19A2EF3E0BF2EE7
:107E6000A2D0813461F49FD0082FAFD0023811F036
:107E7000013811F484E001C083E08DD089C08234E0
:107E800011F484E103C0853419F485E0A6D080C0E4
:107E9000853579F488D0E82EFF2485D0082F10E0AE
:107EA000102F00270E291F29000F111F8ED06801E7
:107EB0006FC0863521F484E090D080E0DECF843638
:107EC00009F040C070D06FD0082F6DD080E0C81688
:107ED00080E7D80618F4F601B7BEE895C0E0D1E017
:107EE00062D089930C17E1F7F0E0CF16F0E7DF06D8
:107EF00018F0F601B7BEE89568D007B600FCFDCFD4
:107F0000A601A0E0B1E02C9130E011968C91119780
:107F100090E0982F8827822B932B1296FA010C0160
:107F200087BEE89511244E5F5F4FF1E0A038BF0790
:107F300051F7F601A7BEE89507B600FCFDCF97BE46
:107F4000E89526C08437B1F42ED02DD0F82E2BD052
:107F50003CD0F601EF2C8F010F5F1F4F84911BD097
:107F6000EA94F801C1F70894C11CD11CFA94CF0C13
:107F7000D11C0EC0853739F428D08EE10CD085E9AC
:107F80000AD08FE07ACF813511F488E018D01DD067
:107F900080E101D065CF982F8091C00085FFFCCF94
:107FA0009093C60008958091C00087FFFCCF809118
:107FB000C00084FD01C0A8958091C6000895E0E648
:107FC000F0E098E1908380830895EDDF803219F02E
:107FD00088E0F5DFFFCF84E1DECF1F93182FE3DFCA
:107FE0001150E9F7F2DF1F91089580E0E8DFEE27F6
:047FF000FF270994CA
:027FFE00040479
:00000001FF
